:040000007DEF01F09F
:1000080000C015F0F2A40DD0172AD66AD76A010EDF
:10001800175C06E3D59E899689928994D0D8176A89
:10002800F294F0B0F090F0B2F09215C000F0110028
:100038000B6A0A6A096A00500402F4CF09F0F3CF88
:1000480008F001500502F4CF0BF0F3CF0AF000508E
:100058000502F3500926F4500A22E86A0B220150DF
:100068000402F3500926F4500A22E86A0B2208C059
:1000780000F009C001F00AC002F00BC003F0120042
:080088009482F00E66161200CE
:10009000BB50010F006E016A000E012221C004F066
:1000A000000E056EC9DF060E026E00C004F001C02E
:1000B00005F0025005E005320432059EFF0FFAD725
:1000C000040E016E04C000F0015004E00036009000
:1000D000FF0FFBD7300E0014036E04C000F005C004
:1000E00001F001320032019E01320032019E00C057
:0C00F000BEFF0F0EBD160350BD12120023
:1000FC00020E0C6E490E0D6E0D2EFED70C2EFCD77B
:06010C00000000001200DB
:0E011200070ED56ED66AD76AF28AD58E120015
:080120009484F00EBD161200DC
:08012800BE6ABD98BD9A1200E9
:10013000BB50010F006E016A000E012221C004F0C5
:10014000000E056E79DF060E026E00C004F001C0DD
:1001500005F0025005E005320432059EFF0FFAD784
:10016000040E016E04C000F0015004E0003600905F
:10017000FF0FFBD7300E0014036E04C000F005C063
:1001800001F001320032019E01320032019E00C0B6
:0C01900067FF0F0E661603506612120087
:0A019C009492BA840C0E6612120051
:0A01A6009494BA840C0EBD121200EE
:0801B000676A6698669A120066
:0E01B8008A8A8C82500E216EB7DFECDF1200B7
:0601C600D39E03001200AD
:1001CC000F01386B396B3A6B3B6B3C6B926A1F0EB1
:1001DC00936E946A956A030E966E896A8A6A8B6A24
:1001EC008C6A8D6ABA80BA92630EBB6E97DFBA8046
:1001FC00BA92630EBB6ED6DF020E0B6E860E0C6EC1
:10020C00990E0D6E0D2EFED70C2EFCD70B2EFAD799
:02021C001200CE
:10021E00F28EF28CF294F28AF090F18AF086F092DD
:06022E00F188F0881200C7
:1002340016921690186A169C1990169E169A16868F
:060244001694169812004A
:10024A00206A1CC001F0010E006E015004E0003665
:10025A000090FF0FFBD700C01FF01AC0E9FF1BC0B8
:10026A00EAFF0050EE14016E0152010ED8A4000EEE
:10027A00006E1E50001A18E01D50000804E239DF13
:10028A0038DF1D06F9D71AC0E9FF1BC0EAFF1F5065
:10029A00EE14016E0152010ED8A4000E006E1E501B
:0E02AA00001A02E0FF0E206E20C000F01200CD
:0A02B80089868982898429DF1200FB
:0E02C2008A8A8C825A0E216E32DF67DF1200AC
:0E02D0008A8A8C825A0E216EDBDE65DF1200F8
:0E02DE008A8A8C82500E216ED4DE5EDF120002
:0E02EC0019DFCCDE8A9A8C928B948B921200D2
:1002FA00176A67DF9ADF8EDF61DF810E1A6E0F0ED3
:10030A001B6E010E1C6E010E1D6E010E1E6E98DF15
:10031A000052D8A4168216A21CD0810E1A6E0F0E95
:10032A001B6E010E1C6E010E1D6E1E6A89DF0052C5
:10033A0010E0000E185C05E3030E185C02E2182AAE
:10034A0006D01850030A02E1186A01D0186AAFDF12
:10035A001692810E1A6E0F0E1B6E020E1C6E010E85
:10036A001D6E010E1E6E6CDF0052D8A4168016A0F8
:10037A001CD0810E1A6E0F0E1B6E020E1C6E010E21
:10038A001D6E1E6A5DDF005210E0000E185C05E368
:10039A00030E185C02E2182A06D01850030A02E17A
:1003AA00186A01D0186A83DF1690810E1A6E0F0E32
:1003BA001B6E040E1C6E010E1D6E010E1E6E40DFBA
:1003CA000052D8A4168C16AC0DD0810E1A6E0F0EE0
:1003DA001B6E040E1C6E010E1D6E1E6A31DF00526A
:1003EA00D8A4169C810E1A6E0F0E1B6E030E1C6E7D
:1003FA00010E1D6E010E1E6E23DF0052D8A4198055
:10040A0019A00DD0810E1A6E0F0E1B6E030E1C6EF4
:10041A00010E1D6E1E6A14DF0052D8A41990840EB4
:10042A001A6E0F0E1B6E1C6A010E1D6E010E1E6ED9
:10043A0007DF005206E0168A1850030A02E1168600
:10044A00169416AA11D0840E1A6E0F0E1B6E1C6A11
:10045A00010E1D6E1E6AF4DE005206E01850010AF3
:10046A0002E116961684169A840E1A6E0F0E1B6EE9
:10047A00010E1C6E010E1D6E010E1E6EE1DE005293
:10048A0006E01850010A02E116941688168E16AE76
:10049A0012D0840E1A6E0F0E1B6E010E1C6E010E08
:1004AA001D6E1E6ACDDE005206E01850030A02E1F4
:1004BA0016841698169E1850000A01E112DF185089
:1004CA00010A0EE116B803D019B001D0FCDE16A855
:1004DA0003D019B001D0FEDE19A002D0020E186EA8
:1004EA001850020A01E1FDDE1850030A0CE116B6A3
:1004FA0003D016BC01D0E0DE16A603D016BC01D08C
:0A050A0056DE16BC186AF9D6FFD7BA
:020000040030CA
:0D000100231F3CFFBF81FF0FC00FE00F4029
:00000001FF
